{
  "_format": "hh-sol-artifact-1",
  "contractName": "Reputation",
  "sourceName": "contracts/Reputation.sol",
  "abi": [
    {
      "inputs": [
        {
          "internalType": "address",
          "name": "_campaignFactory",
          "type": "address"
        }
      ],
      "stateMutability": "nonpayable",
      "type": "constructor"
    },
    {
      "inputs": [
        {
          "internalType": "address",
          "name": "beneficiaryAddress",
          "type": "address"
        }
      ],
      "name": "getReputation",
      "outputs": [
        {
          "internalType": "uint256",
          "name": "",
          "type": "uint256"
        }
      ],
      "stateMutability": "view",
      "type": "function"
    },
    {
      "inputs": [
        {
          "internalType": "address",
          "name": "",
          "type": "address"
        }
      ],
      "name": "reputation",
      "outputs": [
        {
          "internalType": "uint256",
          "name": "",
          "type": "uint256"
        }
      ],
      "stateMutability": "view",
      "type": "function"
    },
    {
      "inputs": [
        {
          "internalType": "address",
          "name": "beneficiaryAddress",
          "type": "address"
        },
        {
          "internalType": "uint256",
          "name": "value",
          "type": "uint256"
        }
      ],
      "name": "updateReputation",
      "outputs": [],
      "stateMutability": "nonpayable",
      "type": "function"
    }
  ],
  "bytecode": "0x608060405234801561001057600080fd5b5060405161058e38038061058e833981810160405281019061003291906100db565b806000806101000a81548173ffffffffffffffffffffffffffffffffffffffff021916908373ffffffffffffffffffffffffffffffffffffffff16021790555050610108565b600080fd5b600073ffffffffffffffffffffffffffffffffffffffff82169050919050565b60006100a88261007d565b9050919050565b6100b88161009d565b81146100c357600080fd5b50565b6000815190506100d5816100af565b92915050565b6000602082840312156100f1576100f0610078565b5b60006100ff848285016100c6565b91505092915050565b610477806101176000396000f3fe608060405234801561001057600080fd5b50600436106100415760003560e01c80639c89a0e214610046578063b9f7945114610076578063f5c91a08146100a6575b600080fd5b610060600480360381019061005b919061026e565b6100c2565b60405161006d91906102b4565b60405180910390f35b610090600480360381019061008b919061026e565b61010b565b60405161009d91906102b4565b60405180910390f35b6100c060048036038101906100bb91906102fb565b610123565b005b6000600160008373ffffffffffffffffffffffffffffffffffffffff1673ffffffffffffffffffffffffffffffffffffffff168152602001908152602001600020549050919050565b60016020528060005260406000206000915090505481565b60008054906101000a900473ffffffffffffffffffffffffffffffffffffffff1673ffffffffffffffffffffffffffffffffffffffff163373ffffffffffffffffffffffffffffffffffffffff16146101b1576040517f08c379a00000000000000000000000000000000000000000000000000000000081526004016101a8906103be565b60405180910390fd5b80600160008473ffffffffffffffffffffffffffffffffffffffff1673ffffffffffffffffffffffffffffffffffffffff1681526020019081526020016000206000828254610200919061040d565b925050819055505050565b600080fd5b600073ffffffffffffffffffffffffffffffffffffffff82169050919050565b600061023b82610210565b9050919050565b61024b81610230565b811461025657600080fd5b50565b60008135905061026881610242565b92915050565b6000602082840312156102845761028361020b565b5b600061029284828501610259565b91505092915050565b6000819050919050565b6102ae8161029b565b82525050565b60006020820190506102c960008301846102a5565b92915050565b6102d88161029b565b81146102e357600080fd5b50565b6000813590506102f5816102cf565b92915050565b600080604083850312156103125761031161020b565b5b600061032085828601610259565b9250506020610331858286016102e6565b9150509250929050565b600082825260208201905092915050565b7f4f6e6c792043616d706169676e466163746f72792063616e207570646174652060008201527f72657075746174696f6e00000000000000000000000000000000000000000000602082015250565b60006103a8602a8361033b565b91506103b38261034c565b604082019050919050565b600060208201905081810360008301526103d78161039b565b9050919050565b7f4e487b7100000000000000000000000000000000000000000000000000000000600052601160045260246000fd5b60006104188261029b565b91506104238361029b565b925082820190508082111561043b5761043a6103de565b5b9291505056fea2646970667358221220c3ad5b69e06b7226852771bb38b966e869bdfb93afa05aab9fe33d0109c30efc64736f6c63430008160033",
  "linkReferences": {},
  "deployedLinkReferences": {}
}