{
  "_format": "hh-sol-artifact-1",
  "contractName": "CampaignFactory",
  "sourceName": "contracts/CampaignFactory.sol",
  "abi": [
    {
      "inputs": [],
      "stateMutability": "payable",
      "type": "constructor"
    },
    {
      "anonymous": false,
      "inputs": [
        {
          "indexed": false,
          "internalType": "address",
          "name": "ownerAddress",
          "type": "address"
        },
        {
          "indexed": false,
          "internalType": "address",
          "name": "campaignAddress",
          "type": "address"
        }
      ],
      "name": "CampaignStarted",
      "type": "event"
    },
    {
      "anonymous": false,
      "inputs": [
        {
          "indexed": false,
          "internalType": "address",
          "name": "campaignAddress",
          "type": "address"
        },
        {
          "indexed": false,
          "internalType": "address",
          "name": "donorAddress",
          "type": "address"
        },
        {
          "indexed": false,
          "internalType": "uint256",
          "name": "amount",
          "type": "uint256"
        }
      ],
      "name": "Donate",
      "type": "event"
    },
    {
      "anonymous": false,
      "inputs": [
        {
          "indexed": false,
          "internalType": "address",
          "name": "campaignAddress",
          "type": "address"
        },
        {
          "indexed": false,
          "internalType": "address",
          "name": "withdrawerAddress",
          "type": "address"
        },
        {
          "indexed": false,
          "internalType": "uint256",
          "name": "amount",
          "type": "uint256"
        },
        {
          "indexed": false,
          "internalType": "address",
          "name": "toAddress",
          "type": "address"
        }
      ],
      "name": "Withdraw",
      "type": "event"
    },
    {
      "inputs": [
        {
          "internalType": "address",
          "name": "donorAddress",
          "type": "address"
        },
        {
          "internalType": "uint256",
          "name": "amount",
          "type": "uint256"
        }
      ],
      "name": "emitDonateEvent",
      "outputs": [],
      "stateMutability": "nonpayable",
      "type": "function"
    },
    {
      "inputs": [
        {
          "internalType": "address",
          "name": "withdrawerAddress",
          "type": "address"
        },
        {
          "internalType": "uint256",
          "name": "amount",
          "type": "uint256"
        },
        {
          "internalType": "address",
          "name": "beneficiaryAddress",
          "type": "address"
        }
      ],
      "name": "emitWithdrawEvent",
      "outputs": [],
      "stateMutability": "nonpayable",
      "type": "function"
    },
    {
      "inputs": [
        {
          "internalType": "address",
          "name": "_reputationAddress",
          "type": "address"
        }
      ],
      "name": "setReputationAddress",
      "outputs": [],
      "stateMutability": "nonpayable",
      "type": "function"
    },
    {
      "inputs": [
        {
          "internalType": "string",
          "name": "_campaignName",
          "type": "string"
        },
        {
          "internalType": "string",
          "name": "_organisationUrl",
          "type": "string"
        },
        {
          "internalType": "uint64",
          "name": "_endTimestamp",
          "type": "uint64"
        },
        {
          "internalType": "address payable",
          "name": "_beneficiaryAddress",
          "type": "address"
        },
        {
          "internalType": "address",
          "name": "_campaignOwnerAddress",
          "type": "address"
        },
        {
          "internalType": "uint256",
          "name": "_targetDonationAmount",
          "type": "uint256"
        },
        {
          "internalType": "string",
          "name": "_campaignDescription",
          "type": "string"
        }
      ],
      "name": "startCampaign",
      "outputs": [
        {
          "internalType": "address",
          "name": "",
          "type": "address"
        }
      ],
      "stateMutability": "nonpayable",
      "type": "function"
    },
    {
      "inputs": [
        {
          "internalType": "address",
          "name": "beneficiaryAddress",
          "type": "address"
        },
        {
          "internalType": "uint256",
          "name": "value",
          "type": "uint256"
        }
      ],
      "name": "updateReputation",
      "outputs": [],
      "stateMutability": "nonpayable",
      "type": "function"
    }
  ],
  "bytecode": "0x6080604052662386f26fc1000034101561004e576040517f08c379a000000000000000000000000000000000000000000000000000000000815260040161004590610116565b60405180910390fd5b336000806101000a81548173ffffffffffffffffffffffffffffffffffffffff021916908373ffffffffffffffffffffffffffffffffffffffff160217905550610136565b600082825260208201905092915050565b7f43616d706169676e466163746f7279206d757374206265206465706c6f79656460008201527f207769746820302e303120455448000000000000000000000000000000000000602082015250565b6000610100602e83610093565b915061010b826100a4565b604082019050919050565b6000602082019050818103600083015261012f816100f3565b9050919050565b612c0b806101456000396000f3fe60806040523480156200001157600080fd5b50600436106200005e5760003560e01c806329fd820114620000635780632e80732314620000835780633c35ef9514620000a35780634ab674a214620000d9578063f5c91a0814620000f9575b600080fd5b6200008160048036038101906200007b919062000825565b62000119565b005b620000a160048036038101906200009b919062000892565b620001ee565b005b620000c16004803603810190620000bb919062000ac5565b62000289565b604051620000d0919062000be6565b60405180910390f35b620000f76004803603810190620000f1919062000c03565b62000425565b005b62000117600480360381019062000111919062000892565b620004c3565b005b60008054906101000a900473ffffffffffffffffffffffffffffffffffffffff1673ffffffffffffffffffffffffffffffffffffffff163373ffffffffffffffffffffffffffffffffffffffff1614620001aa576040517f08c379a0000000000000000000000000000000000000000000000000000000008152600401620001a19062000ce6565b60405180910390fd5b80600160006101000a81548173ffffffffffffffffffffffffffffffffffffffff021916908373ffffffffffffffffffffffffffffffffffffffff16021790555050565b3362000205816002620005b490919063ffffffff16565b62000247576040517f08c379a00000000000000000000000000000000000000000000000000000000081526004016200023e9062000d7e565b60405180910390fd5b7f88dcaca629d63d86330e97adc358b13dd0ebd703239aea96b7ea2fb331b16f4e3384846040516200027c9392919062000db1565b60405180910390a1505050565b600085428167ffffffffffffffff1611620002db576040517f08c379a0000000000000000000000000000000000000000000000000000000008152600401620002d29062000e64565b60405180910390fd5b661eb208c2dc00008167ffffffffffffffff16111562000332576040517f08c379a0000000000000000000000000000000000000000000000000000000008152600401620003299062000efc565b60405180910390fd5b8360008110156200037a576040517f08c379a0000000000000000000000000000000000000000000000000000000008152600401620003719062000f94565b60405180910390fd5b60008a8a8a8a8a8a8a60405162000391906200079e565b620003a3979695949392919062001050565b604051809103906000f080158015620003c0573d6000803e3d6000fd5b509050620003d98160026200068b90919063ffffffff16565b7f631aac66720eedbebf9ba436529a6ca8b26bbf7b1dfbff9604d7d86cb3b61c9087826040516200040c929190620010e2565b60405180910390a1809350505050979650505050505050565b336200043c816002620005b490919063ffffffff16565b6200047e576040517f08c379a0000000000000000000000000000000000000000000000000000000008152600401620004759062000d7e565b60405180910390fd5b7f3ed4ee04a905a278b050a856bbe7ddaaf327a30514373e65aa6103beeae488c333858585604051620004b594939291906200110f565b60405180910390a150505050565b33620004da816002620005b490919063ffffffff16565b6200051c576040517f08c379a0000000000000000000000000000000000000000000000000000000008152600401620005139062000d7e565b60405180910390fd5b600160009054906101000a900473ffffffffffffffffffffffffffffffffffffffff1673ffffffffffffffffffffffffffffffffffffffff1663f5c91a0884846040518363ffffffff1660e01b81526004016200057b9291906200115c565b600060405180830381600087803b1580156200059657600080fd5b505af1158015620005ab573d6000803e3d6000fd5b50505050505050565b600080836001018054905003620005cf576000905062000685565b8173ffffffffffffffffffffffffffffffffffffffff16836001018460000160008573ffffffffffffffffffffffffffffffffffffffff1673ffffffffffffffffffffffffffffffffffffffff168152602001908152602001600020548154811062000640576200063f62001189565b5b9060005260206000200160009054906101000a900473ffffffffffffffffffffffffffffffffffffffff1673ffffffffffffffffffffffffffffffffffffffff161490505b92915050565b620006978282620005b4565b15620006da576040517f08c379a0000000000000000000000000000000000000000000000000000000008152600401620006d1906200122e565b60405180910390fd5b81600101819080600181540180825580915050600190039060005260206000200160009091909190916101000a81548173ffffffffffffffffffffffffffffffffffffffff021916908373ffffffffffffffffffffffffffffffffffffffff160217905550600182600101805490506200075591906200127f565b8260000160008373ffffffffffffffffffffffffffffffffffffffff1673ffffffffffffffffffffffffffffffffffffffff168152602001908152602001600020819055505050565b61191b80620012bb83390190565b6000604051905090565b600080fd5b600080fd5b600073ffffffffffffffffffffffffffffffffffffffff82169050919050565b6000620007ed82620007c0565b9050919050565b620007ff81620007e0565b81146200080b57600080fd5b50565b6000813590506200081f81620007f4565b92915050565b6000602082840312156200083e576200083d620007b6565b5b60006200084e848285016200080e565b91505092915050565b6000819050919050565b6200086c8162000857565b81146200087857600080fd5b50565b6000813590506200088c8162000861565b92915050565b60008060408385031215620008ac57620008ab620007b6565b5b6000620008bc858286016200080e565b9250506020620008cf858286016200087b565b9150509250929050565b600080fd5b600080fd5b6000601f19601f8301169050919050565b7f4e487b7100000000000000000000000000000000000000000000000000000000600052604160045260246000fd5b6200092e82620008e3565b810181811067ffffffffffffffff8211171562000950576200094f620008f4565b5b80604052505050565b600062000965620007ac565b905062000973828262000923565b919050565b600067ffffffffffffffff821115620009965762000995620008f4565b5b620009a182620008e3565b9050602081019050919050565b82818337600083830152505050565b6000620009d4620009ce8462000978565b62000959565b905082815260208101848484011115620009f357620009f2620008de565b5b62000a00848285620009ae565b509392505050565b600082601f83011262000a205762000a1f620008d9565b5b813562000a32848260208601620009bd565b91505092915050565b600067ffffffffffffffff82169050919050565b62000a5a8162000a3b565b811462000a6657600080fd5b50565b60008135905062000a7a8162000a4f565b92915050565b600062000a8d82620007c0565b9050919050565b62000a9f8162000a80565b811462000aab57600080fd5b50565b60008135905062000abf8162000a94565b92915050565b600080600080600080600060e0888a03121562000ae75762000ae6620007b6565b5b600088013567ffffffffffffffff81111562000b085762000b07620007bb565b5b62000b168a828b0162000a08565b975050602088013567ffffffffffffffff81111562000b3a5762000b39620007bb565b5b62000b488a828b0162000a08565b965050604062000b5b8a828b0162000a69565b955050606062000b6e8a828b0162000aae565b945050608062000b818a828b016200080e565b93505060a062000b948a828b016200087b565b92505060c088013567ffffffffffffffff81111562000bb85762000bb7620007bb565b5b62000bc68a828b0162000a08565b91505092959891949750929550565b62000be081620007e0565b82525050565b600060208201905062000bfd600083018462000bd5565b92915050565b60008060006060848603121562000c1f5762000c1e620007b6565b5b600062000c2f868287016200080e565b935050602062000c42868287016200087b565b925050604062000c55868287016200080e565b9150509250925092565b600082825260208201905092915050565b7f4f6e6c79206f776e65722063616e20736574207468652052657075746174696f60008201527f6e20616464726573730000000000000000000000000000000000000000000000602082015250565b600062000cce60298362000c5f565b915062000cdb8262000c70565b604082019050919050565b6000602082019050818103600083015262000d018162000cbf565b9050919050565b7f53656e646572206d75737420626520612043616d706169676e2063726561746560008201527f642066726f6d20746869732043616d706169676e466163746f72790000000000602082015250565b600062000d66603b8362000c5f565b915062000d738262000d08565b604082019050919050565b6000602082019050818103600083015262000d998162000d57565b9050919050565b62000dab8162000857565b82525050565b600060608201905062000dc8600083018662000bd5565b62000dd7602083018562000bd5565b62000de6604083018462000da0565b949350505050565b7f43616d706169676e20656e642064617465206d75737420626520696e2074686560008201527f2066757475726500000000000000000000000000000000000000000000000000602082015250565b600062000e4c60278362000c5f565b915062000e598262000dee565b604082019050919050565b6000602082019050818103600083015262000e7f8162000e3d565b9050919050565b7f43616d706169676e20656e642064617465206d757374206e6f7420626520616660008201527f74657220746865206d6178206461746520696e204a6176617363726970740000602082015250565b600062000ee4603e8362000c5f565b915062000ef18262000e86565b604082019050919050565b6000602082019050818103600083015262000f178162000ed5565b9050919050565b7f54617267657420646f6e6174696f6e20616d6f756e74206d757374206265203e60008201527f3d20302045544800000000000000000000000000000000000000000000000000602082015250565b600062000f7c60278362000c5f565b915062000f898262000f1e565b604082019050919050565b6000602082019050818103600083015262000faf8162000f6d565b9050919050565b600081519050919050565b60005b8381101562000fe157808201518184015260208101905062000fc4565b60008484015250505050565b600062000ffa8262000fb6565b62001006818562000c5f565b93506200101881856020860162000fc1565b6200102381620008e3565b840191505092915050565b620010398162000a3b565b82525050565b6200104a8162000a80565b82525050565b600060e08201905081810360008301526200106c818a62000fed565b9050818103602083015262001082818962000fed565b90506200109360408301886200102e565b620010a260608301876200103f565b620010b1608083018662000bd5565b620010c060a083018562000da0565b81810360c0830152620010d4818462000fed565b905098975050505050505050565b6000604082019050620010f9600083018562000bd5565b62001108602083018462000bd5565b9392505050565b600060808201905062001126600083018762000bd5565b62001135602083018662000bd5565b62001144604083018562000da0565b62001153606083018462000bd5565b95945050505050565b600060408201905062001173600083018562000bd5565b62001182602083018462000da0565b9392505050565b7f4e487b7100000000000000000000000000000000000000000000000000000000600052603260045260246000fd5b7f416464726573735365743a206b657920616c726561647920657869737473206960008201527f6e20746865207365742e00000000000000000000000000000000000000000000602082015250565b600062001216602a8362000c5f565b91506200122382620011b8565b604082019050919050565b60006020820190508181036000830152620012498162001207565b9050919050565b7f4e487b7100000000000000000000000000000000000000000000000000000000600052601160045260246000fd5b60006200128c8262000857565b9150620012998362000857565b9250828203905081811115620012b457620012b362001250565b5b9291505056fe608060405260006007553480156200001657600080fd5b506040516200191b3803806200191b83398181016040528101906200003c91906200042f565b86600090816200004d919062000780565b5085600190816200005f919062000780565b5084600260006101000a81548167ffffffffffffffff021916908367ffffffffffffffff16021790555083600260086101000a81548173ffffffffffffffffffffffffffffffffffffffff021916908373ffffffffffffffffffffffffffffffffffffffff16021790555082600360006101000a81548173ffffffffffffffffffffffffffffffffffffffff021916908373ffffffffffffffffffffffffffffffffffffffff16021790555081600481905550806005908162000123919062000780565b5033600660006101000a81548173ffffffffffffffffffffffffffffffffffffffff021916908373ffffffffffffffffffffffffffffffffffffffff1602179055505050505050505062000867565b6000604051905090565b600080fd5b600080fd5b600080fd5b600080fd5b6000601f19601f8301169050919050565b7f4e487b7100000000000000000000000000000000000000000000000000000000600052604160045260246000fd5b620001db8262000190565b810181811067ffffffffffffffff82111715620001fd57620001fc620001a1565b5b80604052505050565b60006200021262000172565b9050620002208282620001d0565b919050565b600067ffffffffffffffff821115620002435762000242620001a1565b5b6200024e8262000190565b9050602081019050919050565b60005b838110156200027b5780820151818401526020810190506200025e565b60008484015250505050565b60006200029e620002988462000225565b62000206565b905082815260208101848484011115620002bd57620002bc6200018b565b5b620002ca8482856200025b565b509392505050565b600082601f830112620002ea57620002e962000186565b5b8151620002fc84826020860162000287565b91505092915050565b600067ffffffffffffffff82169050919050565b620003248162000305565b81146200033057600080fd5b50565b600081519050620003448162000319565b92915050565b600073ffffffffffffffffffffffffffffffffffffffff82169050919050565b600062000377826200034a565b9050919050565b62000389816200036a565b81146200039557600080fd5b50565b600081519050620003a9816200037e565b92915050565b6000620003bc826200034a565b9050919050565b620003ce81620003af565b8114620003da57600080fd5b50565b600081519050620003ee81620003c3565b92915050565b6000819050919050565b6200040981620003f4565b81146200041557600080fd5b50565b6000815190506200042981620003fe565b92915050565b600080600080600080600060e0888a0312156200045157620004506200017c565b5b600088015167ffffffffffffffff81111562000472576200047162000181565b5b620004808a828b01620002d2565b975050602088015167ffffffffffffffff811115620004a457620004a362000181565b5b620004b28a828b01620002d2565b9650506040620004c58a828b0162000333565b9550506060620004d88a828b0162000398565b9450506080620004eb8a828b01620003dd565b93505060a0620004fe8a828b0162000418565b92505060c088015167ffffffffffffffff81111562000522576200052162000181565b5b620005308a828b01620002d2565b91505092959891949750929550565b600081519050919050565b7f4e487b7100000000000000000000000000000000000000000000000000000000600052602260045260246000fd5b600060028204905060018216806200059257607f821691505b602082108103620005a857620005a76200054a565b5b50919050565b60008190508160005260206000209050919050565b60006020601f8301049050919050565b600082821b905092915050565b600060088302620006127fffffffffffffffffffffffffffffffffffffffffffffffffffffffffffffffff82620005d3565b6200061e8683620005d3565b95508019841693508086168417925050509392505050565b6000819050919050565b6000620006616200065b6200065584620003f4565b62000636565b620003f4565b9050919050565b6000819050919050565b6200067d8362000640565b620006956200068c8262000668565b848454620005e0565b825550505050565b600090565b620006ac6200069d565b620006b981848462000672565b505050565b5b81811015620006e157620006d5600082620006a2565b600181019050620006bf565b5050565b601f8211156200073057620006fa81620005ae565b6200070584620005c3565b8101602085101562000715578190505b6200072d6200072485620005c3565b830182620006be565b50505b505050565b600082821c905092915050565b6000620007556000198460080262000735565b1980831691505092915050565b600062000770838362000742565b9150826002028217905092915050565b6200078b826200053f565b67ffffffffffffffff811115620007a757620007a6620001a1565b5b620007b3825462000579565b620007c0828285620006e5565b600060209050601f831160018114620007f85760008415620007e3578287015190505b620007ef858262000762565b8655506200085f565b601f1984166200080886620005ae565b60005b8281101562000832578489015182556001820191506020850194506020810190506200080b565b868310156200085257848901516200084e601f89168262000742565b8355505b6001600288020188555050505b505050505050565b6110a480620008776000396000f3fe60806040526004361061009c5760003560e01c806374d8c6431161006457806374d8c64314610169578063885e7c62146101945780638c8d1d12146101bf578063c54d757a146101ea578063d1eff89514610215578063ed88c68e146102405761009c565b8063047ae69d146100a15780630865146a146100cc5780632e1a7d4d146100f75780633343414b146101135780633cbf8b971461013e575b600080fd5b3480156100ad57600080fd5b506100b661024a565b6040516100c39190610a5e565b60405180910390f35b3480156100d857600080fd5b506100e1610274565b6040516100ee9190610a92565b60405180910390f35b610111600480360381019061010c9190610ade565b61027e565b005b34801561011f57600080fd5b50610128610535565b6040516101359190610b2e565b60405180910390f35b34801561014a57600080fd5b50610153610553565b6040516101609190610bd9565b60405180910390f35b34801561017557600080fd5b5061017e6105e5565b60405161018b9190610bd9565b60405180910390f35b3480156101a057600080fd5b506101a9610677565b6040516101b69190610bd9565b60405180910390f35b3480156101cb57600080fd5b506101d4610709565b6040516101e19190610a92565b60405180910390f35b3480156101f657600080fd5b506101ff610713565b60405161020c9190610a92565b60405180910390f35b34801561022157600080fd5b5061022a61071b565b6040516102379190610a5e565b60405180910390f35b610248610745565b005b6000600360009054906101000a900473ffffffffffffffffffffffffffffffffffffffff16905090565b6000600754905090565b336000600360009054906101000a900473ffffffffffffffffffffffffffffffffffffffff1673ffffffffffffffffffffffffffffffffffffffff168273ffffffffffffffffffffffffffffffffffffffff161490506000600260089054906101000a900473ffffffffffffffffffffffffffffffffffffffff1673ffffffffffffffffffffffffffffffffffffffff168373ffffffffffffffffffffffffffffffffffffffff1614905081806103325750805b610371576040517f08c379a000000000000000000000000000000000000000000000000000000000815260040161036890610c47565b60405180910390fd5b83804710156103b5576040517f08c379a00000000000000000000000000000000000000000000000000000000081526004016103ac90610cb3565b60405180910390fd5b600260089054906101000a900473ffffffffffffffffffffffffffffffffffffffff1673ffffffffffffffffffffffffffffffffffffffff166108fc869081150290604051600060405180830381858888f1935050505015801561041d573d6000803e3d6000fd5b507f56c54ba9bd38d8fd62012e42c7ee564519b09763c426d331b3661b537ead19b23386600260089054906101000a900473ffffffffffffffffffffffffffffffffffffffff1660405161047393929190610d32565b60405180910390a1600660009054906101000a900473ffffffffffffffffffffffffffffffffffffffff1673ffffffffffffffffffffffffffffffffffffffff16634ab674a23387600260089054906101000a900473ffffffffffffffffffffffffffffffffffffffff166040518463ffffffff1660e01b81526004016104fc93929190610d32565b600060405180830381600087803b15801561051657600080fd5b505af115801561052a573d6000803e3d6000fd5b505050505050505050565b6000600260009054906101000a900467ffffffffffffffff16905090565b60606001805461056290610d98565b80601f016020809104026020016040519081016040528092919081815260200182805461058e90610d98565b80156105db5780601f106105b0576101008083540402835291602001916105db565b820191906000526020600020905b8154815290600101906020018083116105be57829003601f168201915b5050505050905090565b6060600580546105f490610d98565b80601f016020809104026020016040519081016040528092919081815260200182805461062090610d98565b801561066d5780601f106106425761010080835404028352916020019161066d565b820191906000526020600020905b81548152906001019060200180831161065057829003601f168201915b5050505050905090565b60606000805461068690610d98565b80601f01602080910402602001604051908101604052809291908181526020018280546106b290610d98565b80156106ff5780601f106106d4576101008083540402835291602001916106ff565b820191906000526020600020905b8154815290600101906020018083116106e257829003601f168201915b5050505050905090565b6000600454905090565b600047905090565b6000600260089054906101000a900473ffffffffffffffffffffffffffffffffffffffff16905090565b3373ffffffffffffffffffffffffffffffffffffffff16600260089054906101000a900473ffffffffffffffffffffffffffffffffffffffff1673ffffffffffffffffffffffffffffffffffffffff16036107d5576040517f08c379a00000000000000000000000000000000000000000000000000000000081526004016107cc90610e3b565b60405180910390fd5b426103e8600260009054906101000a900467ffffffffffffffff166107fa9190610eb9565b67ffffffffffffffff1611610844576040517f08c379a000000000000000000000000000000000000000000000000000000000815260040161083b90610f5c565b60405180910390fd5b3460008111610888576040517f08c379a000000000000000000000000000000000000000000000000000000000815260040161087f90610fc8565b60405180910390fd5b346007600082825461089a9190610fe8565b925050819055507f0553260a2e46b0577270d8992db02d30856ca880144c72d6e9503760946aef1333346040516108d292919061101c565b60405180910390a1600660009054906101000a900473ffffffffffffffffffffffffffffffffffffffff1673ffffffffffffffffffffffffffffffffffffffff16632e80732333346040518363ffffffff1660e01b815260040161093792919061101c565b600060405180830381600087803b15801561095157600080fd5b505af1158015610965573d6000803e3d6000fd5b50505050600660009054906101000a900473ffffffffffffffffffffffffffffffffffffffff1673ffffffffffffffffffffffffffffffffffffffff1663f5c91a08600260089054906101000a900473ffffffffffffffffffffffffffffffffffffffff16346040518363ffffffff1660e01b81526004016109e8929190611045565b600060405180830381600087803b158015610a0257600080fd5b505af1158015610a16573d6000803e3d6000fd5b5050505050565b600073ffffffffffffffffffffffffffffffffffffffff82169050919050565b6000610a4882610a1d565b9050919050565b610a5881610a3d565b82525050565b6000602082019050610a736000830184610a4f565b92915050565b6000819050919050565b610a8c81610a79565b82525050565b6000602082019050610aa76000830184610a83565b92915050565b600080fd5b610abb81610a79565b8114610ac657600080fd5b50565b600081359050610ad881610ab2565b92915050565b600060208284031215610af457610af3610aad565b5b6000610b0284828501610ac9565b91505092915050565b600067ffffffffffffffff82169050919050565b610b2881610b0b565b82525050565b6000602082019050610b436000830184610b1f565b92915050565b600081519050919050565b600082825260208201905092915050565b60005b83811015610b83578082015181840152602081019050610b68565b60008484015250505050565b6000601f19601f8301169050919050565b6000610bab82610b49565b610bb58185610b54565b9350610bc5818560208601610b65565b610bce81610b8f565b840191505092915050565b60006020820190508181036000830152610bf38184610ba0565b905092915050565b7f4e6f74206f776e6572206f722062656e65666963696172792e2e2e0000000000600082015250565b6000610c31601b83610b54565b9150610c3c82610bfb565b602082019050919050565b60006020820190508181036000830152610c6081610c24565b9050919050565b7f4e6f7420656e6f7567682062616c616e63652e2e2e0000000000000000000000600082015250565b6000610c9d601583610b54565b9150610ca882610c67565b602082019050919050565b60006020820190508181036000830152610ccc81610c90565b9050919050565b6000819050919050565b6000610cf8610cf3610cee84610a1d565b610cd3565b610a1d565b9050919050565b6000610d0a82610cdd565b9050919050565b6000610d1c82610cff565b9050919050565b610d2c81610d11565b82525050565b6000606082019050610d476000830186610a4f565b610d546020830185610a83565b610d616040830184610d23565b949350505050565b7f4e487b7100000000000000000000000000000000000000000000000000000000600052602260045260246000fd5b60006002820490506001821680610db057607f821691505b602082108103610dc357610dc2610d69565b5b50919050565b7f43616e6e6f7420646f6e61746520746f206f776e20646564696361746564206360008201527f616d706169676e2e2e2e00000000000000000000000000000000000000000000602082015250565b6000610e25602a83610b54565b9150610e3082610dc9565b604082019050919050565b60006020820190508181036000830152610e5481610e18565b9050919050565b7f4e487b7100000000000000000000000000000000000000000000000000000000600052601260045260246000fd5b7f4e487b7100000000000000000000000000000000000000000000000000000000600052601160045260246000fd5b6000610ec482610b0b565b9150610ecf83610b0b565b925082610edf57610ede610e5b565b5b828204905092915050565b7f43616e6e6f7420646f6e61746520746f20657870697265642063616d7061696760008201527f6e2e2e2e00000000000000000000000000000000000000000000000000000000602082015250565b6000610f46602483610b54565b9150610f5182610eea565b604082019050919050565b60006020820190508181036000830152610f7581610f39565b9050919050565b7f56616c7565206f66203020646f6e617465642e2e2e0000000000000000000000600082015250565b6000610fb2601583610b54565b9150610fbd82610f7c565b602082019050919050565b60006020820190508181036000830152610fe181610fa5565b9050919050565b6000610ff382610a79565b9150610ffe83610a79565b925082820190508082111561101657611015610e8a565b5b92915050565b60006040820190506110316000830185610a4f565b61103e6020830184610a83565b9392505050565b600060408201905061105a6000830185610d23565b6110676020830184610a83565b939250505056fea2646970667358221220b3128d2ad819bb92c5e4c7108f4957832a06957362191134f6c0c3544b22d76a64736f6c63430008160033a26469706673582212202f0ff2ba338d6f9b31c04ea368037d7d0b78f7fc8d298cfa510caea440d4c26564736f6c63430008160033",
  "linkReferences": {},
  "deployedLinkReferences": {}
}