{
  "_format": "hh-sol-artifact-1",
  "contractName": "Chainrity",
  "sourceName": "contracts/Chainrity.sol",
  "abi": [
    {
      "inputs": [],
      "stateMutability": "nonpayable",
      "type": "constructor"
    },
    {
      "anonymous": false,
      "inputs": [
        {
          "indexed": false,
          "internalType": "bytes32",
          "name": "campaignId",
          "type": "bytes32"
        },
        {
          "indexed": false,
          "internalType": "address",
          "name": "initiator",
          "type": "address"
        }
      ],
      "name": "CampaignEnded",
      "type": "event"
    },
    {
      "anonymous": false,
      "inputs": [
        {
          "indexed": false,
          "internalType": "bytes32",
          "name": "campaignId",
          "type": "bytes32"
        },
        {
          "indexed": false,
          "internalType": "address",
          "name": "initiator",
          "type": "address"
        }
      ],
      "name": "CampaignStarted",
      "type": "event"
    },
    {
      "anonymous": false,
      "inputs": [
        {
          "indexed": false,
          "internalType": "bytes32",
          "name": "campaignId",
          "type": "bytes32"
        },
        {
          "indexed": false,
          "internalType": "address",
          "name": "donor",
          "type": "address"
        },
        {
          "indexed": false,
          "internalType": "uint256",
          "name": "amount",
          "type": "uint256"
        }
      ],
      "name": "FundsDonated",
      "type": "event"
    },
    {
      "anonymous": false,
      "inputs": [
        {
          "indexed": false,
          "internalType": "bytes32",
          "name": "campaignId",
          "type": "bytes32"
        },
        {
          "indexed": false,
          "internalType": "address",
          "name": "initiator",
          "type": "address"
        },
        {
          "indexed": false,
          "internalType": "uint256",
          "name": "amount",
          "type": "uint256"
        }
      ],
      "name": "WithdrawFunds",
      "type": "event"
    },
    {
      "inputs": [
        {
          "internalType": "bytes32",
          "name": "",
          "type": "bytes32"
        }
      ],
      "name": "_campaigns",
      "outputs": [
        {
          "internalType": "string",
          "name": "title",
          "type": "string"
        },
        {
          "internalType": "string",
          "name": "imgUrl",
          "type": "string"
        },
        {
          "internalType": "string",
          "name": "description",
          "type": "string"
        },
        {
          "internalType": "bool",
          "name": "isLive",
          "type": "bool"
        },
        {
          "internalType": "address",
          "name": "initiator",
          "type": "address"
        },
        {
          "internalType": "uint256",
          "name": "deadline",
          "type": "uint256"
        },
        {
          "internalType": "uint256",
          "name": "balance",
          "type": "uint256"
        }
      ],
      "stateMutability": "view",
      "type": "function"
    },
    {
      "inputs": [
        {
          "internalType": "uint256",
          "name": "",
          "type": "uint256"
        }
      ],
      "name": "_campaignsList",
      "outputs": [
        {
          "internalType": "bytes32",
          "name": "",
          "type": "bytes32"
        }
      ],
      "stateMutability": "view",
      "type": "function"
    },
    {
      "inputs": [
        {
          "internalType": "bytes32",
          "name": "campaignId",
          "type": "bytes32"
        }
      ],
      "name": "donateToCampaign",
      "outputs": [],
      "stateMutability": "payable",
      "type": "function"
    },
    {
      "inputs": [
        {
          "internalType": "bytes32",
          "name": "campaignId",
          "type": "bytes32"
        }
      ],
      "name": "endCampaign",
      "outputs": [],
      "stateMutability": "nonpayable",
      "type": "function"
    },
    {
      "inputs": [
        {
          "internalType": "address",
          "name": "initiator",
          "type": "address"
        },
        {
          "internalType": "string",
          "name": "title",
          "type": "string"
        },
        {
          "internalType": "string",
          "name": "description",
          "type": "string"
        }
      ],
      "name": "generateCampaignId",
      "outputs": [
        {
          "internalType": "bytes32",
          "name": "",
          "type": "bytes32"
        }
      ],
      "stateMutability": "pure",
      "type": "function"
    },
    {
      "inputs": [
        {
          "internalType": "bytes32",
          "name": "campaignId",
          "type": "bytes32"
        }
      ],
      "name": "getCampaign",
      "outputs": [
        {
          "components": [
            {
              "internalType": "string",
              "name": "title",
              "type": "string"
            },
            {
              "internalType": "string",
              "name": "imgUrl",
              "type": "string"
            },
            {
              "internalType": "string",
              "name": "description",
              "type": "string"
            },
            {
              "internalType": "bool",
              "name": "isLive",
              "type": "bool"
            },
            {
              "internalType": "address",
              "name": "initiator",
              "type": "address"
            },
            {
              "internalType": "uint256",
              "name": "deadline",
              "type": "uint256"
            },
            {
              "internalType": "uint256",
              "name": "balance",
              "type": "uint256"
            }
          ],
          "internalType": "struct Chainrity.Campaign",
          "name": "",
          "type": "tuple"
        }
      ],
      "stateMutability": "view",
      "type": "function"
    },
    {
      "inputs": [],
      "name": "getCampaignCount",
      "outputs": [
        {
          "internalType": "uint8",
          "name": "",
          "type": "uint8"
        }
      ],
      "stateMutability": "view",
      "type": "function"
    },
    {
      "inputs": [
        {
          "internalType": "uint256",
          "name": "_batchNumber",
          "type": "uint256"
        }
      ],
      "name": "getCampaignsInBatch",
      "outputs": [
        {
          "internalType": "bytes32[]",
          "name": "",
          "type": "bytes32[]"
        }
      ],
      "stateMutability": "view",
      "type": "function"
    },
    {
      "inputs": [
        {
          "internalType": "string",
          "name": "title",
          "type": "string"
        },
        {
          "internalType": "string",
          "name": "description",
          "type": "string"
        },
        {
          "internalType": "string",
          "name": "imgUrl",
          "type": "string"
        },
        {
          "internalType": "uint256",
          "name": "deadline",
          "type": "uint256"
        }
      ],
      "name": "startCampaign",
      "outputs": [],
      "stateMutability": "nonpayable",
      "type": "function"
    },
    {
      "inputs": [
        {
          "internalType": "address",
          "name": "",
          "type": "address"
        },
        {
          "internalType": "bytes32",
          "name": "",
          "type": "bytes32"
        }
      ],
      "name": "userCampaignDonations",
      "outputs": [
        {
          "internalType": "uint256",
          "name": "",
          "type": "uint256"
        }
      ],
      "stateMutability": "view",
      "type": "function"
    },
    {
      "inputs": [
        {
          "internalType": "bytes32",
          "name": "campaignId",
          "type": "bytes32"
        }
      ],
      "name": "withdrawCampaignFunds",
      "outputs": [],
      "stateMutability": "nonpayable",
      "type": "function"
    }
  ],
  "bytecode": "0x608060405234801561001057600080fd5b506120f7806100206000396000f3fe60806040526004361061009c5760003560e01c80638ce8d465116100645780638ce8d4651461019e578063913afba5146101db57806397c9f7c8146102045780639c32c26b14610241578063cabe04521461027e578063e13475c8146102bb5761009c565b80632596d2df146100a157806329777bc6146100e45780635faabc321461010d5780636caa921814610136578063840f35f314610161575b600080fd5b3480156100ad57600080fd5b506100c860048036038101906100c39190611091565b6102d7565b6040516100db97969594939291906111c3565b60405180910390f35b3480156100f057600080fd5b5061010b60048036038101906101069190611091565b6104de565b005b34801561011957600080fd5b50610134600480360381019061012f91906112d8565b61063b565b005b34801561014257600080fd5b5061014b61083c565b60405161015891906113bd565b60405180910390f35b34801561016d57600080fd5b5061018860048036038101906101839190611404565b610852565b6040516101959190611444565b60405180910390f35b3480156101aa57600080fd5b506101c560048036038101906101c0919061145f565b610877565b6040516101d2919061149b565b60405180910390f35b3480156101e757600080fd5b5061020260048036038101906101fd9190611091565b61088f565b005b34801561021057600080fd5b5061022b600480360381019061022691906114b6565b610af9565b604051610238919061149b565b60405180910390f35b34801561024d57600080fd5b506102686004803603810190610263919061145f565b610b3a565b6040516102759190611609565b60405180910390f35b34801561028a57600080fd5b506102a560048036038101906102a09190611091565b610c03565b6040516102b2919061174c565b60405180910390f35b6102d560048036038101906102d09190611091565b610e6b565b005b60026020528060005260406000206000915090508060000180546102fa9061179d565b80601f01602080910402602001604051908101604052809291908181526020018280546103269061179d565b80156103735780601f1061034857610100808354040283529160200191610373565b820191906000526020600020905b81548152906001019060200180831161035657829003601f168201915b5050505050908060010180546103889061179d565b80601f01602080910402602001604051908101604052809291908181526020018280546103b49061179d565b80156104015780601f106103d657610100808354040283529160200191610401565b820191906000526020600020905b8154815290600101906020018083116103e457829003601f168201915b5050505050908060020180546104169061179d565b80601f01602080910402602001604051908101604052809291908181526020018280546104429061179d565b801561048f5780601f106104645761010080835404028352916020019161048f565b820191906000526020600020905b81548152906001019060200180831161047257829003601f168201915b5050505050908060030160009054906101000a900460ff16908060030160019054906101000a900473ffffffffffffffffffffffffffffffffffffffff16908060040154908060050154905087565b60006002600083815260200190815260200160002090508060030160019054906101000a900473ffffffffffffffffffffffffffffffffffffffff1673ffffffffffffffffffffffffffffffffffffffff163373ffffffffffffffffffffffffffffffffffffffff1614610587576040517f08c379a000000000000000000000000000000000000000000000000000000000815260040161057e9061181a565b60405180910390fd5b8060030160009054906101000a900460ff166105d8576040517f08c379a00000000000000000000000000000000000000000000000000000000081526004016105cf90611886565b60405180910390fd5b60008160030160006101000a81548160ff0219169083151502179055504281600401819055507f278a5f2f2583840f91e2f85f9c8643a05c7b3ab62b487aa41e593d56eba30491823360405161062f9291906118a6565b60405180910390a15050565b600061064a3389898989610af9565b905060006002600083815260200190815260200160002090508060030160009054906101000a900460ff16156106b5576040517f08c379a00000000000000000000000000000000000000000000000000000000081526004016106ac9061191b565b60405180910390fd5b8242106106f7576040517f08c379a00000000000000000000000000000000000000000000000000000000081526004016106ee90611987565b60405180910390fd5b888882600001918261070a929190611b8d565b50868682600201918261071e929190611b8d565b50338160030160016101000a81548173ffffffffffffffffffffffffffffffffffffffff021916908373ffffffffffffffffffffffffffffffffffffffff1602179055508484826001019182610775929190611b8d565b5082816004018190555060018160030160006101000a81548160ff02191690831515021790555081600160008060009054906101000a900460ff1660ff16815260200190815260200160002081905550600160008054906101000a900460ff166107df9190611c8c565b6000806101000a81548160ff021916908360ff1602179055507fdc0818b72ab921845d16549bba2517251c8478e66922d6feadca523530d9d36582336040516108299291906118a6565b60405180910390a1505050505050505050565b60008060009054906101000a900460ff16905090565b6003602052816000526040600020602052806000526040600020600091509150505481565b60016020528060005260406000206000915090505481565b60006002600083815260200190815260200160002090508060030160019054906101000a900473ffffffffffffffffffffffffffffffffffffffff1673ffffffffffffffffffffffffffffffffffffffff163373ffffffffffffffffffffffffffffffffffffffff1614610938576040517f08c379a000000000000000000000000000000000000000000000000000000000815260040161092f9061181a565b60405180910390fd5b8060030160009054906101000a900460ff161561098a576040517f08c379a000000000000000000000000000000000000000000000000000000000815260040161098190611d0d565b60405180910390fd5b806004015442116109d0576040517f08c379a00000000000000000000000000000000000000000000000000000000081526004016109c790611d79565b60405180910390fd5b6000816005015411610a17576040517f08c379a0000000000000000000000000000000000000000000000000000000008152600401610a0e90611de5565b60405180910390fd5b600081600501549050600082600501819055508160030160019054906101000a900473ffffffffffffffffffffffffffffffffffffffff1673ffffffffffffffffffffffffffffffffffffffff166108fc829081150290604051600060405180830381858888f19350505050158015610a94573d6000803e3d6000fd5b507f35ec88416fb8c4e0ad0ee0c23a1aa6c0ff90c9426a895aac02f414a62c420e62838360030160019054906101000a900473ffffffffffffffffffffffffffffffffffffffff1683604051610aec93929190611e05565b60405180910390a1505050565b600080858585858a604051602001610b15959493929190611ec3565b6040516020818303038152906040528051906020012090508091505095945050505050565b60606000600567ffffffffffffffff811115610b5957610b586119b2565b5b604051908082528060200260200182016040528015610b875781602001602082028036833780820191505090505b5090506000836005610b999190611efc565b905060005b6005811015610bf857600160008284610bb79190611f3e565b815260200190815260200160002054838281518110610bd957610bd8611f72565b5b6020026020010181815250508080610bf090611fa1565b915050610b9e565b508192505050919050565b610c0b610ffc565b600260008381526020019081526020016000206040518060e0016040529081600082018054610c399061179d565b80601f0160208091040260200160405190810160405280929190818152602001828054610c659061179d565b8015610cb25780601f10610c8757610100808354040283529160200191610cb2565b820191906000526020600020905b815481529060010190602001808311610c9557829003601f168201915b50505050508152602001600182018054610ccb9061179d565b80601f0160208091040260200160405190810160405280929190818152602001828054610cf79061179d565b8015610d445780601f10610d1957610100808354040283529160200191610d44565b820191906000526020600020905b815481529060010190602001808311610d2757829003601f168201915b50505050508152602001600282018054610d5d9061179d565b80601f0160208091040260200160405190810160405280929190818152602001828054610d899061179d565b8015610dd65780601f10610dab57610100808354040283529160200191610dd6565b820191906000526020600020905b815481529060010190602001808311610db957829003601f168201915b505050505081526020016003820160009054906101000a900460ff161515151581526020016003820160019054906101000a900473ffffffffffffffffffffffffffffffffffffffff1673ffffffffffffffffffffffffffffffffffffffff1673ffffffffffffffffffffffffffffffffffffffff168152602001600482015481526020016005820154815250509050919050565b60006002600083815260200190815260200160002090508060040154421115610eac5760008160030160006101000a81548160ff0219169083151502179055505b80600401544210610ef2576040517f08c379a0000000000000000000000000000000000000000000000000000000008152600401610ee990612035565b60405180910390fd5b600034905060008111610f3a576040517f08c379a0000000000000000000000000000000000000000000000000000000008152600401610f31906120a1565b60405180910390fd5b80826005016000828254610f4e9190611f3e565b9250508190555080600360003373ffffffffffffffffffffffffffffffffffffffff1673ffffffffffffffffffffffffffffffffffffffff16815260200190815260200160002060008581526020019081526020016000206000828254610fb59190611f3e565b925050819055507f54689524e07569c0ca87254312902d6ad3511bf3d0bb30dc6a1f67ae4e3bb53a833383604051610fef93929190611e05565b60405180910390a1505050565b6040518060e00160405280606081526020016060815260200160608152602001600015158152602001600073ffffffffffffffffffffffffffffffffffffffff16815260200160008152602001600081525090565b600080fd5b600080fd5b6000819050919050565b61106e8161105b565b811461107957600080fd5b50565b60008135905061108b81611065565b92915050565b6000602082840312156110a7576110a6611051565b5b60006110b58482850161107c565b91505092915050565b600081519050919050565b600082825260208201905092915050565b60005b838110156110f85780820151818401526020810190506110dd565b60008484015250505050565b6000601f19601f8301169050919050565b6000611120826110be565b61112a81856110c9565b935061113a8185602086016110da565b61114381611104565b840191505092915050565b60008115159050919050565b6111638161114e565b82525050565b600073ffffffffffffffffffffffffffffffffffffffff82169050919050565b600061119482611169565b9050919050565b6111a481611189565b82525050565b6000819050919050565b6111bd816111aa565b82525050565b600060e08201905081810360008301526111dd818a611115565b905081810360208301526111f18189611115565b905081810360408301526112058188611115565b9050611214606083018761115a565b611221608083018661119b565b61122e60a08301856111b4565b61123b60c08301846111b4565b98975050505050505050565b600080fd5b600080fd5b600080fd5b60008083601f84011261126c5761126b611247565b5b8235905067ffffffffffffffff8111156112895761128861124c565b5b6020830191508360018202830111156112a5576112a4611251565b5b9250929050565b6112b5816111aa565b81146112c057600080fd5b50565b6000813590506112d2816112ac565b92915050565b60008060008060008060006080888a0312156112f7576112f6611051565b5b600088013567ffffffffffffffff81111561131557611314611056565b5b6113218a828b01611256565b9750975050602088013567ffffffffffffffff81111561134457611343611056565b5b6113508a828b01611256565b9550955050604088013567ffffffffffffffff81111561137357611372611056565b5b61137f8a828b01611256565b935093505060606113928a828b016112c3565b91505092959891949750929550565b600060ff82169050919050565b6113b7816113a1565b82525050565b60006020820190506113d260008301846113ae565b92915050565b6113e181611189565b81146113ec57600080fd5b50565b6000813590506113fe816113d8565b92915050565b6000806040838503121561141b5761141a611051565b5b6000611429858286016113ef565b925050602061143a8582860161107c565b9150509250929050565b600060208201905061145960008301846111b4565b92915050565b60006020828403121561147557611474611051565b5b6000611483848285016112c3565b91505092915050565b6114958161105b565b82525050565b60006020820190506114b0600083018461148c565b92915050565b6000806000806000606086880312156114d2576114d1611051565b5b60006114e0888289016113ef565b955050602086013567ffffffffffffffff81111561150157611500611056565b5b61150d88828901611256565b9450945050604086013567ffffffffffffffff8111156115305761152f611056565b5b61153c88828901611256565b92509250509295509295909350565b600081519050919050565b600082825260208201905092915050565b6000819050602082019050919050565b6115808161105b565b82525050565b60006115928383611577565b60208301905092915050565b6000602082019050919050565b60006115b68261154b565b6115c08185611556565b93506115cb83611567565b8060005b838110156115fc5781516115e38882611586565b97506115ee8361159e565b9250506001810190506115cf565b5085935050505092915050565b6000602082019050818103600083015261162381846115ab565b905092915050565b600082825260208201905092915050565b6000611647826110be565b611651818561162b565b93506116618185602086016110da565b61166a81611104565b840191505092915050565b61167e8161114e565b82525050565b61168d81611189565b82525050565b61169c816111aa565b82525050565b600060e08301600083015184820360008601526116bf828261163c565b915050602083015184820360208601526116d9828261163c565b915050604083015184820360408601526116f3828261163c565b91505060608301516117086060860182611675565b50608083015161171b6080860182611684565b5060a083015161172e60a0860182611693565b5060c083015161174160c0860182611693565b508091505092915050565b6000602082019050818103600083015261176681846116a2565b905092915050565b7f4e487b7100000000000000000000000000000000000000000000000000000000600052602260045260246000fd5b600060028204905060018216806117b557607f821691505b6020821081036117c8576117c761176e565b5b50919050565b7f4e6f742063616d706169676e20696e69746961746f7200000000000000000000600082015250565b60006118046016836110c9565b915061180f826117ce565b602082019050919050565b60006020820190508181036000830152611833816117f7565b9050919050565b7f63616d706169676e206973206e6f742061637469766500000000000000000000600082015250565b60006118706016836110c9565b915061187b8261183a565b602082019050919050565b6000602082019050818103600083015261189f81611863565b9050919050565b60006040820190506118bb600083018561148c565b6118c8602083018461119b565b9392505050565b7f43616d706169676e206578697374730000000000000000000000000000000000600082015250565b6000611905600f836110c9565b9150611910826118cf565b602082019050919050565b60006020820190508181036000830152611934816118f8565b9050919050565b7f43616d706169676e20656e646564000000000000000000000000000000000000600082015250565b6000611971600e836110c9565b915061197c8261193b565b602082019050919050565b600060208201905081810360008301526119a081611964565b9050919050565b600082905092915050565b7f4e487b7100000000000000000000000000000000000000000000000000000000600052604160045260246000fd5b60008190508160005260206000209050919050565b60006020601f8301049050919050565b600082821b905092915050565b600060088302611a437fffffffffffffffffffffffffffffffffffffffffffffffffffffffffffffffff82611a06565b611a4d8683611a06565b95508019841693508086168417925050509392505050565b6000819050919050565b6000611a8a611a85611a80846111aa565b611a65565b6111aa565b9050919050565b6000819050919050565b611aa483611a6f565b611ab8611ab082611a91565b848454611a13565b825550505050565b600090565b611acd611ac0565b611ad8818484611a9b565b505050565b5b81811015611afc57611af1600082611ac5565b600181019050611ade565b5050565b601f821115611b4157611b12816119e1565b611b1b846119f6565b81016020851015611b2a578190505b611b3e611b36856119f6565b830182611add565b50505b505050565b600082821c905092915050565b6000611b6460001984600802611b46565b1980831691505092915050565b6000611b7d8383611b53565b9150826002028217905092915050565b611b9783836119a7565b67ffffffffffffffff811115611bb057611baf6119b2565b5b611bba825461179d565b611bc5828285611b00565b6000601f831160018114611bf45760008415611be2578287013590505b611bec8582611b71565b865550611c54565b601f198416611c02866119e1565b60005b82811015611c2a57848901358255600182019150602085019450602081019050611c05565b86831015611c475784890135611c43601f891682611b53565b8355505b6001600288020188555050505b50505050505050565b7f4e487b7100000000000000000000000000000000000000000000000000000000600052601160045260246000fd5b6000611c97826113a1565b9150611ca2836113a1565b9250828201905060ff811115611cbb57611cba611c5d565b5b92915050565b7f63616d706169676e206973207374696c6c206163746976650000000000000000600082015250565b6000611cf76018836110c9565b9150611d0282611cc1565b602082019050919050565b60006020820190508181036000830152611d2681611cea565b9050919050565b7f43616d706169676e206973207374696c6c206163746976650000000000000000600082015250565b6000611d636018836110c9565b9150611d6e82611d2d565b602082019050919050565b60006020820190508181036000830152611d9281611d56565b9050919050565b7f4e6f2066756e647320746f207769746864726177000000000000000000000000600082015250565b6000611dcf6014836110c9565b9150611dda82611d99565b602082019050919050565b60006020820190508181036000830152611dfe81611dc2565b9050919050565b6000606082019050611e1a600083018661148c565b611e27602083018561119b565b611e3460408301846111b4565b949350505050565b600081905092915050565b82818337600083830152505050565b6000611e628385611e3c565b9350611e6f838584611e47565b82840190509392505050565b60008160601b9050919050565b6000611e9382611e7b565b9050919050565b6000611ea582611e88565b9050919050565b611ebd611eb882611189565b611e9a565b82525050565b6000611ed0828789611e56565b9150611edd828587611e56565b9150611ee98284611eac565b6014820191508190509695505050505050565b6000611f07826111aa565b9150611f12836111aa565b9250828202611f20816111aa565b91508282048414831517611f3757611f36611c5d565b5b5092915050565b6000611f49826111aa565b9150611f54836111aa565b9250828201905080821115611f6c57611f6b611c5d565b5b92915050565b7f4e487b7100000000000000000000000000000000000000000000000000000000600052603260045260246000fd5b6000611fac826111aa565b91507fffffffffffffffffffffffffffffffffffffffffffffffffffffffffffffffff8203611fde57611fdd611c5d565b5b600182019050919050565b7f43616d706169676e2068617320656e6465640000000000000000000000000000600082015250565b600061201f6012836110c9565b915061202a82611fe9565b602082019050919050565b6000602082019050818103600083015261204e81612012565b9050919050565b7f57726f6e67204554482076616c75650000000000000000000000000000000000600082015250565b600061208b600f836110c9565b915061209682612055565b602082019050919050565b600060208201905081810360008301526120ba8161207e565b905091905056fea264697066735822122061b0f1babdda75d30d687595484bf254be86bf7f569b0ef4c09353e1ca34999564736f6c63430008130033",
  "linkReferences": {},
  "deployedLinkReferences": {}
}